:020000040800F2
:1000000000060020E1020008E3020008E302000805
:10001000E3020008E3020008E3020008E30200082C
:10002000E3020008E3020008E3020008592A00087E
:10003000E3020008E3020008E3020008E30200080C
:10004000E3020008E3020008E3020008E3020008FC
:10005000E3020008E3020008B9410008E541000896
:10006000114200083D42000869420008991000084A
:10007000C1100008ED100008191100084511000812
:100080006D11000899110008E3020008E30200085E
:10009000E3020008E3020008E302000895420008BA
:1000A000E3020008E3020008E3020008E30200089C
:1000B000E3020008E3020008E3020008E30200088C
:1000C000E3020008E3020008E3020008E30200087C
:1000D000E3020008E3020008E3020008E30200086C
:1000E000F9420008E3020008E3020008E302000806
:1000F000E3020008E3020008E3020008C51100085B
:10010000E3020008E30200086D430008E302000870
:10011000E3020008E3020008E3020008E30200082B
:10012000F1110008191200084512000871120008A8
:100130009D120008E3020008E3020008E302000841
:10014000E3020008E3020008E3020008E3020008FB
:10015000C5120008F11200081D130008E302000890
:10016000E3020008E3020008E3020008E3020008DB
:10017000E302000845360008E3020008E302000835
:10018000E3020008E3020008E3020008E3020008BB
:10019000E3020008E3020008E3020008E3020008AB
:1001A000E3020008E3020008E3020008E30200089B
:1001B000E3020008E3020008E3020008E30200088B
:1001C000E3020008E3020008E3020008E30200087B
:1001D000E302000831360008E3020008E3020008E9
:1001E000E3020008E3020008E3020008E30200085B
:1001F000E3020008E3020008E3020008E30200084B
:10020000E3020008E3020008E3020008E30200083A
:10021000E3020008E3020008E3020008E30200082A
:10022000E3020008E3020008E3020008E30200081A
:10023000E3020008E3020008E3020008E30200080A
:10024000E3020008E3020008E3020008E3020008FA
:10025000E3020008E3020008E3020008E3020008EA
:10026000E3020008E3020008E3020008E3020008DA
:10027000E3020008E3020008E3020008E3020008CA
:10028000E3020008E3020008E3020008E3020008BA
:10029000E3020008E3020008E3020008E3020008AA
:1002A000E3020008E3020008E3020008E30200089A
:1002B000E3020008E3020008E3020008E30200088A
:1002C000E3020008E3020008E3020008E30200087A
:1002D000E3020008E3020008E3020008E30200086A
:1002E00002E000F000F8FEE772B6374880F30888B5
:1002F000364880F3098836483649086040F20000E5
:10030000CCF200004EF63471CEF200010860BFF36B
:100310004F8FBFF36F8F40F20000C0F2F0004EF637
:100320008851CEF200010860BFF34F8FBFF36F8F8B
:100330004FF00000E1EE100A4EF63C71CEF20001E3
:100340000860062080F31488BFF36F8F02F0E6FB8D
:1003500003F0ECFC4FF055301F491B4A91423CBF63
:1003600041F8040BFAE71D49184A91423CBF41F895
:10037000040BFAE71A491B4A1B4B9A423EBF51F83D
:10038000040B42F8040BF8E700201849184A914280
:100390003CBF41F8040BFAE702F0FEFB03F04AFD14
:1003A000144C154DAC4203DA54F8041B8847F9E7A6
:1003B00000F042F8114C124DAC4203DA54F8041B21
:1003C0008847F9E702F0E6BB000600200022002083
:1003D0000000000808ED00E00000002000060020FA
:1003E00090480008002200205C22002060220020AB
:1003F00084440020E0020008E0020008E002000857
:10040000E00200082DE9F04F2DED108AC1F80CD064
:10041000D0F80CD0BDEC108ABDE8F08F002383F338
:1004200011882846A047002001F0DCFDFEE701F01E
:1004300067FD00DFFEE7000038B500F02FFC00F09C
:10044000B5FD02F0C9FA054602F0FCFA0446C0B94F
:100450000E4B9D4217D001339D4241F2883512BFA9
:10046000044600250124002002F0C0FA0CB100F07F
:1004700075F800F06FFD284600F01EF900F06EF8E8
:10048000F9E70025EFE70546EDE700BF010007B0FB
:1004900008B500F0D5FBA0F120035842584108BD33
:1004A00007B541F21203022101A8ADF8043000F0B3
:1004B000E5FB03B05DF804FB38B5302383F3118806
:1004C000174803680BB101F059FE0023154A4FF499
:1004D0007A71134801F048FE002383F31188124C0F
:1004E000236813B12368013B2360636813B1636819
:1004F000013B63600D4D2B7833B963687BB90220F3
:1005000000F092FC322363602B78032B07D16368E1
:100510002BB9022000F088FC4FF47A73636038BD79
:1005200060220020B90400088023002078220020E7
:10053000084B187003280CD8DFE800F00805020803
:10054000022000F069BC022000F05CBC024B0022DB
:100550005A6070477822002080230020F8B5504B65
:10056000504A1C461968013100F0998004339342C7
:10057000F8D162684C4B9A4240F291804B4B9B6899
:1005800003F1006303F500339A4280F08880002075
:1005900000F0AAFB0220FFF7CBFF454B0021D3F868
:1005A000E820C3F8E810D3F81021C3F81011D3F8ED
:1005B0001021D3F8EC20C3F8EC10D3F81421C3F8C1
:1005C0001411D3F81421D3F8F020C3F8F010D3F8A5
:1005D0001821C3F81811D3F81821D3F8802042F05D
:1005E0000062C3F88020D3F8802022F00062C3F8B4
:1005F0008020D3F88020D3F8802042F00072C3F826
:100600008020D3F8802022F00072C3F88020D3F835
:10061000803072B64FF0E023C3F8084DD4E90004EF
:10062000BFF34F8FBFF36F8F224AC2F88410BFF31E
:100630004F8F536923F480335361BFF34F8FD2F848
:10064000803043F6E076C3F3C905C3F34E335B0154
:1006500003EA060C29464CEA81770139C2F8747224
:10066000F9D2203B13F1200FF2D1BFF34F8FBFF32C
:100670006F8FBFF34F8FBFF36F8F536923F4003336
:1006800053610023C2F85032BFF34F8FBFF36F8F17
:10069000302383F31188854680F308882047F8BD0E
:1006A0000000020820000208FFFF010800220020CD
:1006B0000044025800ED00E02DE9F04F93B0B44B38
:1006C0002022FF2100900AA89D6800F0EDFBB14AAE
:1006D0001378A3B90121B04811700360302383F36C
:1006E000118803680BB101F049FD0023AB4A4FF4B8
:1006F0007A71A94801F038FD002383F31188009B2B
:1007000013B1A74B009A1A60A64A1378032B03D0A3
:1007100000231370A24A53604FF0000A009CD34696
:100720005646D146012000F077FB24B19C4B1B6854
:10073000002B00F02682002000F082FA0390039B39
:10074000002BF2DB012000F05DFB039B213B1F2B04
:10075000E8D801A252F823F0D907000801080008E0
:100760009508000825070008250700082507000848
:1007700027090008F70A0008110A0008730A000890
:100780009B0A0008C10A000825070008D30A0008D0
:1007900025070008450B0008790800082507000810
:1007A000890B0008E50700087908000825070008FC
:1007B000730A000825070008250700082507000818
:1007C0002507000825070008250700082507000859
:1007D00025070008950800080220FFF759FE0028A9
:1007E00040F0F981009B022105A8BAF1000F08BF73
:1007F0001C4641F21233ADF8143000F03FFA91E795
:100800004FF47A7000F01CFA071EEBDB0220FFF7B2
:100810003FFE0028E6D0013F052F00F2DE81DFE831
:1008200007F0030A0D1013360523042105A80593CC
:1008300000F024FA17E004215548F9E704215A484A
:10084000F6E704215948F3E74FF01C08404608F149
:10085000040800F04BFA0421059005A800F00EFAF8
:10086000B8F12C0FF2D101204FF0000900FA07F780
:1008700047EA0B0B5FFA8BFB00F062FB26B10BF033
:100880000B030B2B08BF0024FFF70AFE4AE70421E5
:100890004748CDE7002EA5D00BF00B030B2BA1D1C1
:1008A0000220FFF7F5FD074600289BD00120002617
:1008B00000F01AFA0220FFF73BFE1FFA86F84046C6
:1008C00000F022FA0446B0B1039940460136A1F186
:1008D00040025142514100F027FA0028EDD1BA46BA
:1008E000044641F21213022105A83E46ADF8143029
:1008F00000F0C4F916E725460120FFF719FE244B46
:100900009B68AB4207D9284600F0F0F9013040F06F
:1009100067810435F3E70025224BBA463E461D7039
:100920001F4B5D60A8E7002E3FF45CAF0BF00B039C
:100930000B2B7FF457AF0220FFF7FAFD322000F0B7
:100940007FF9B0F10008FFF64DAF18F003077FF410
:1009500049AF0F4A08EB0503926893423FF642AF56
:10096000B8F5807F3FF73EAF124BB845019323DDCA
:100970004FF47A7000F064F90390039A002AFFF6AE
:1009800031AF039A0137019B03F8012BEDE700BF5C
:10099000002200207C23002060220020B9040008EF
:1009A000802300207822002004220020082200203A
:1009B0000C2200207C220020C820FFF769FD07469A
:1009C00000283FF40FAF1F2D11D8C5F120020AAB4C
:1009D00025F0030084494245184428BF424601924D
:1009E00000F03CFA019AFF217F4800F05DFA4FEADF
:1009F000A803C8F387027C492846019300F05CFAFB
:100A0000064600283FF46DAF019B05EB830533E7F5
:100A10000220FFF73DFD00283FF4E4AE00F0A2F90C
:100A200000283FF4DFAE0027B846704B9B68BB42FE
:100A300018D91F2F11D80A9B01330ED027F00303BA
:100A400012AA134453F8203C05934046042205A9FA
:100A5000043700F00BFB8046E7E7384600F046F924
:100A60000590F2E7CDF81480042105A800F006F9FE
:100A700002E70023642104A8049300F0F5F800289D
:100A80007FF4B0AE0220FFF703FD00283FF4AAAECA
:100A9000049800F05DF90590E6E70023642104A8BE
:100AA000049300F0E1F800287FF49CAE0220FFF7E9
:100AB000EFFC00283FF496AE049800F04BF9EAE70B
:100AC0000220FFF7E5FC00283FF48CAE00F05AF955
:100AD000E1E70220FFF7DCFC00283FF483AE05A924
:100AE000142000F055F907460421049004A800F0F2
:100AF000C5F83946B9E7322000F0A2F8071EFFF624
:100B000071AEBB077FF46EAE384A07EB09039268FB
:100B100093423FF667AE0220FFF7BAFC00283FF48D
:100B200061AE27F003074F44B9453FF4A5AE4846F0
:100B300009F1040900F0DAF80421059005A800F095
:100B40009DF8F1E74FF47A70FFF7A2FC00283FF41C
:100B500049AE00F007F9002844D00A9B01330BD0BE
:100B600008220AA9002000F0A7F900283AD0202284
:100B7000FF210AA800F098F9FFF792FC1C4801F049
:100B800037FA13B0BDE8F08F002E3FF42BAE0BF018
:100B90000B030B2B7FF426AE0023642105A80593DD
:100BA00000F062F8074600287FF41CAE0220FFF731
:100BB0006FFC804600283FF415AEFFF771FC41F250
:100BC000883001F015FA059800F0EEF946463C46EB
:100BD00000F0B6F9A6E506464EE64FF0000901E63C
:100BE000BA467EE637467CE67C22002000220020C2
:100BF000A08601000F4B70B51B780C460133DBB2A9
:100C0000012B11D80C4D4FF47A732968A2FB0332E3
:100C100022460E6A01462846B047844204D1074B5B
:100C2000002201201A7070BD4FF4FA7001F0E0F953
:100C30000020F8E710220020B0260020B423002076
:100C4000002307B5024601210DF107008DF807309A
:100C5000FFF7D0FF20B19DF8070003B05DF804FB5B
:100C60004FF0FF30F9E700000A46042108B5FFF70E
:100C7000C1FF80F00100C0B2404208BD30B4054C55
:100C80000A46014623682046DD69034BAC4630BC6A
:100C9000604700BFB0260020A086010070B5104C50
:100CA0000025104E01F0C2FC20803068238883426A
:100CB0000CD800252088013801F0B4FC23880544B5
:100CC000013BB5F5802F2380F4D370BD01F0AAFC61
:100CD000336805440133B5F5003F3360E5D3E8E7F9
:100CE000B62300208823002001F06EBD00F10060D3
:100CF00000F500300068704700F10060920000F5D8
:100D0000003001F0EFBC0000054B1A68054B1B8852
:100D10009B1A834202D9104401F084BC0020704722
:100D200088230020B623002038B50446074D29B19A
:100D300028682044BDE8384001F08CBC2868204475
:100D400001F076FC0028F3D038BD00BF88230020D6
:100D50000020704700F1FF5000F58F10D0F8000818
:100D600070470000064991F8243033B1002308226F
:100D7000086A81F82430FFF7BFBF0120704700BF29
:100D80008C230020014B1868704700BF0010005CE6
:100D9000194B01380322084470B51D68174BC5F381
:100DA0000B042D0C1E88A6420BD15C680A46013C40
:100DB000824213460FD214F9016F4EB102F8016B53
:100DC000F6E7013A03F10803ECD181420B4602D267
:100DD0002C2203F8012B0424094A1688AE4204D1C0
:100DE000984284BF967803F8016B013C02F104023B
:100DF000F3D1581A70BD00BF0010005C142200200F
:100E000064440008022803D1024B4FF400229A6187
:100E1000704700BF00100258022802D1014B08227F
:100E20009A61704700100258022804D1024A53699F
:100E300083F00803536170470010025870B50446F0
:100E40004FF47A764CB1412C254628BF412506FB4C
:100E500005F0641B01F0CCF8F4E770BD002310B579
:100E6000934203D0CC5CC4540133F9E710BD0000B9
:100E7000013810B510F9013F3BB191F900409C4297
:100E800003D11AB10131013AF4E71AB191F9002006
:100E9000981A10BD1046FCE703460246D01A12F914
:100EA000011B0029FAD1704702440346934202D045
:100EB00003F8011BFAE770472DE9F8431F4D14466C
:100EC0000746884695F8242052BBDFF870909CB303
:100ED00095F824302BB92022FF2148462F62FFF7D6
:100EE000E3FF95F824004146C0F1080205EB8000BD
:100EF000A24228BF2246D6B29200FFF7AFFF95F874
:100F00002430A41B17441E449044E4B2F6B2082EC9
:100F100085F82460DBD1FFF725FF0028D7D108E052
:100F20002B6A03EB82038342CFD0FFF71BFF00281D
:100F3000CBD10020BDE8F8830120FBE78C23002003
:100F4000024B1A78024B1A70704700BFB42300207E
:100F50001022002010B5114C114800F079FB2146F9
:100F60000F4800F0A1FB24684FF47A70D4F8902069
:100F7000D2F8043843F00203C2F80438FFF75EFFEA
:100F80000849204600F09EFCD4F89020D2F804389E
:100F900023F00203C2F8043810BD00BF2046000849
:100FA000B02600202846000870470000F8B571B64A
:100FB000002301201A46194600F058FA0446802002
:100FC00001F0A0FC002849D00025254A80274FF4D5
:100FD000D06C3D26136913F0C06F26D1D2F81031C2
:100FE00013F0C06F21D1236805F100619960236877
:100FF000D86023685F602368C3F800C021680B686D
:1010000043F001030B6021680B6823F01E030B60A3
:1010100021680B68DB07FCD4237B8035616806FA06
:1010200003F3B5F5001F0B60D4D1204600F05EFA43
:10103000B5F5001F11D000240A4E0B4D012001F020
:10104000C3FB3388A34205D928682044013401F04A
:1010500001FBF6E7002001F0B7FB61B6F8BD00BF69
:1010600000200052B62300208823002030B50A4417
:10107000084D91420DD011F8013B5840082340F330
:101080000004013B2C4013F0FF0384EA5000F6D12A
:10109000EFE730BD2083B8ED08B5074B074A196864
:1010A00001F03D01996053680BB190689847BDE825
:1010B000084001F009BD00BF00000240B823002035
:1010C00008B5084B1968890901F03D018A019A6049
:1010D000054AD3680BB110699847BDE8084001F094
:1010E000F3BC00BF00000240B823002008B5084B45
:1010F0001968090C01F03D010A049A60054A536918
:101100000BB190699847BDE8084001F0DDBC00BF15
:1011100000000240B823002008B5084B1968890D6B
:1011200001F03D018A059A60054AD3690BB1106A46
:101130009847BDE8084001F0C7BC00BF000002406E
:10114000B823002008B5074B074A596801F03D0154
:10115000D960536A0BB1906A9847BDE8084001F026
:10116000B3BC00BF00000240B823002008B5084B04
:101170005968890901F03D018A01DA60054AD36A9C
:101180000BB1106B9847BDE8084001F09DBC00BF53
:1011900000000240B823002008B5084B5968090C2C
:1011A00001F03D010A04DA60054A536B0BB1906B04
:1011B0009847BDE8084001F087BC00BF000002402E
:1011C000B823002008B5084B5968890D01F03D018E
:1011D0008A05DA60054AD36B0BB1106C9847BDE8FD
:1011E000084001F071BC00BF00000240B82300209D
:1011F00008B5074B074A196801F03D019960536C27
:101200000BB1906C9847BDE8084001F05DBC00BF91
:1012100000040240B823002008B5084B196889096A
:1012200001F03D018A019A60054AD36C0BB1106D43
:101230009847BDE8084001F047BC00BF00040240E9
:10124000B823002008B5084B1968090C01F03D01CE
:101250000A049A60054A536D0BB1906D9847BDE83A
:10126000084001F031BC00BF00040240B823002058
:1012700008B5084B1968890D01F03D018A059A608F
:10128000054AD36D0BB1106E9847BDE8084001F0D8
:101290001BBC00BF00040240B823002008B5074B68
:1012A000074A596801F03D01D960536E0BB1906E49
:1012B0009847BDE8084001F007BC00BF00040240A9
:1012C000B823002008B5084B5968890901F03D0191
:1012D0008A01DA60054AD36E0BB1106F9847BDE8FA
:1012E000084001F0F1BB00BF00040240B823002019
:1012F00008B5084B5968090C01F03D010A04DA6091
:10130000054A536F0BB1906F9847BDE8084001F054
:10131000DBBB00BF00040240B823002008B5084B27
:101320005968890D01F03D018A05DA60054AD36FDD
:1013300013B1D2F880009847BDE8084001F0C4BB63
:1013400000040240B823002000230C4910B51A46BF
:101350000B4C0B6054F82300026001EB4300043394
:101360004260402BF6D1074A4FF0FF339360D360C1
:10137000C2F80834C2F80C3410BD00BFB8230020F6
:1013800074440008000002400F28F8B510D9102856
:1013900010D0112811D0122808D10F240720DFF80F
:1013A000C8E00126DEF80050A04208D9002653E02C
:1013B0000446F4E70F240020F1E70724FBE706FAD0
:1013C00000F73D424AD1264C4FEA001C3D4304EB56
:1013D00000160EEBC000CEF80050C0E90123FBB2AE
:1013E00073B12048D0F8D83043F00103C0F8D830AA
:1013F000D0F8003143F00103C0F80031D0F80031DB
:1014000017F47F4F0ED01748D0F8D83043F00203BE
:10141000C0F8D830D0F8003143F00203C0F80031F2
:10142000D0F8003154F80C00036823F01F03036068
:10143000056815F00105FBD104EB0C033D2493F87E
:101440000CC05F6804FA0CF43C6021240560446120
:1014500012B1987B00F054F83046F8BD0130A3E794
:101460007444000800440258B823002010B530240A
:1014700084F31188FFF788FF002383F3118810BDE0
:1014800010B50446807B00F051F801231549627BBA
:1014900003FA02F20B6823EA0203DAB20B6072B9B4
:1014A000114AD2F8D81021F00101C2F8D810D2F8B0
:1014B000001121F00101C2F80011D2F8002113F44B
:1014C0007F4F0ED1084BD3F8D82022F00202C3F888
:1014D000D820D3F8002122F00202C3F80021D3F86B
:1014E000003110BDB82300200044025808B5302355
:1014F00083F31188FFF7C4FF002383F3118808BD2D
:10150000090100F16043012203F56143C9B283F888
:10151000001300F01F039A4043099B0003F160434E
:1015200003F56143C3F880211A60704700F01F0380
:1015300001229A40430900F160409B0000F56140A0
:1015400003F1604303F56143C3F88020C3F88021B1
:10155000002380F80033704702684368114301603C
:1015600003B118477047000013B5406B00F5805475
:10157000D4F8A4381A681178042914D1017C0229FE
:1015800011D11979012312898B4013420BD101A982
:101590004C3002F089F9D4F8A4480246019B217925
:1015A000206800F0DFF902B010BD0000143002F036
:1015B0000BB900004FF0FF33143002F005B9000002
:1015C0004C3002F0DDB900004FF0FF334C3002F038
:1015D000D7B90000143002F0D9B800004FF0FF3145
:1015E000143002F0D3B800004C3002F0A9B900006A
:1015F0004FF0FF324C3002F0A3B9000000207047DA
:1016000010B500F58054D4F8A4381A68117804296C
:1016100017D1017C022914D15979012352898B40B9
:1016200013420ED1143002F06BF8024648B1D4F8E0
:10163000A4484FF4407361792068BDE8104000F081
:101640007FB910BD406BFFF7DBBF000070470000A3
:101650007FB5124B01250426044603600023057460
:1016600000F1840243602946C0E902330C4B02902A
:10167000143001934FF44073009602F01DF8094BAB
:1016800004F69442294604F14C000294CDE900632B
:101690004FF4407302F0E4F804B070BD74450008E4
:1016A00045160008691500080A68302383F311887D
:1016B0000B790B3342F823004B79133342F82300A4
:1016C0008B7913B10B3342F8230000F58053C3F834
:1016D000A41802230374002080F3118870470000CF
:1016E00038B5037F044613B190F85430ABB90125E7
:1016F000201D0221FFF730FF04F114006FF00101FB
:10170000257700F09DFC04F14C0084F854506FF0F4
:101710000101BDE8384000F093BC38BD10B501218F
:1017200004460430FFF718FF0023237784F8543071
:1017300010BD000038B504460025143001F0D4FF78
:1017400004F14C00257702F0A3F8201D84F85450D2
:101750000121FFF701FF2046BDE83840FFF750BFE9
:1017600090F8803003F06003202B06D190F88120A0
:101770000023212A03D81F2A06D800207047222AD6
:10178000FBD1C0E91D3303E0034A426707228267A9
:10179000C3670120704700BF2C22002037B500F539
:1017A0008055D5F8A4381A68117804291AD1017C1B
:1017B000022917D11979012312898B40134211D1C3
:1017C00000F14C04204602F023F958B101A920464B
:1017D00002F06AF8D5F8A4480246019B21792068F6
:1017E00000F0C0F803B030BD01F10B03F0B550F8C4
:1017F000236085B004460D46FEB1302383F3118883
:1018000004EB8507301D0821FFF7A6FEFB6806F1F3
:101810004C005B691B681BB1019002F053F8019802
:1018200003A902F041F8024648B1039B294620462D
:1018300000F098F8002383F3118805B0F0BDFB6831
:101840005A691268002AF5D01B8A013B1340F1D176
:1018500004F18002EAE70000133138B550F8214066
:10186000ECB1302383F3118804F58053D3F8A42816
:101870001368527903EB8203DB689B695D6845B1AD
:1018800004216018FFF768FE294604F1140001F0F6
:1018900041FF2046FFF7B4FE002383F3118838BDD3
:1018A0007047000001F00EBA01234022002110B55C
:1018B000044600F8303BFFF7F7FA0023C4E9013390
:1018C00010BD000010B53023044683F31188242294
:1018D000416000210C30FFF7E7FA204601F014FACE
:1018E00002230020237080F3118810BD70B500EB37
:1018F0008103054650690E461446DA6018B110227D
:101900000021FFF7D1FAA06918B110220021FFF7DA
:10191000CBFA31462846BDE8704001F0FBBA000022
:1019200083682022002103F0011310B50446836070
:101930001030FFF7B9FA2046BDE8104001F076BB41
:10194000F0B4012500EB810447898D40E4683D43F4
:10195000A469458123600023A2606360F0BC01F0AC
:1019600093BB0000F0B4012500EB810407898D4092
:10197000E4683D436469058123600023A2606360DD
:10198000F0BC01F009BC000070B50223002504463C
:10199000242203702946C0F888500C3040F8045CBB
:1019A000FFF782FA204684F8705001F047FA636826
:1019B0001B6823B129462046BDE87040184770BD1A
:1019C0000378052B10B504460AD080F88C30052327
:1019D000037043681B680BB1042198470023A36080
:1019E00010BD00000178052906D190F88C204368CD
:1019F00002701B6803B118477047000070B590F87B
:101A00007030044613B1002380F8703004F1800276
:101A1000204601F02FFB63689B68B3B994F88030CF
:101A200013F0600535D00021204601F021FE002191
:101A3000204601F011FE63681B6813B106212046A1
:101A40009847062384F8703070BD204698470028D8
:101A5000E4D0B4F88630A26F9A4288BFA36794F9A5
:101A60008030A56F002B4FF0300380F20381002DF2
:101A700000F0F280092284F8702083F3118800219D
:101A80002046D4E91D23FFF76DFF002383F311885F
:101A9000DAE794F8812003F07F0343EA022340F25F
:101AA0000232934200F0C58021D8B3F5807F48D040
:101AB0000DD8012B3FD0022B00F09380002BB2D128
:101AC00004F1880262670222A267E367C1E7B3F507
:101AD000817F00F09B80B3F5407FA4D194F88230E1
:101AE000012BA0D1B4F8883043F0020332E0B3F503
:101AF000006F4DD017D8B3F5A06F31D0A3F5C063F8
:101B0000012B90D86368204694F882205E6894F890
:101B10008310B4F88430B047002884D043686367EA
:101B20000368A3671AE0B3F5106F36D040F602429F
:101B300093427FF478AF5C4B63670223A367002373
:101B4000C3E794F88230012B7FF46DAFB4F888308E
:101B500023F00203A4F88830C4E91D55E56778E74F
:101B6000B4F88030B3F5A06F0ED194F882302046DF
:101B700084F88A3001F0C0F963681B6813B1012151
:101B800020469847032323700023C4E91D339CE7B4
:101B900004F18B0363670123C3E72378042B10D17F
:101BA000302383F311882046FFF7BAFE85F31188AE
:101BB0000321636884F88B5021701B680BB12046A9
:101BC000984794F88230002BDED084F88B300423C1
:101BD000237063681B68002BD6D0022120469847EB
:101BE000D2E794F8843020461D0603F00F010AD591
:101BF00001F032FA012804D002287FF414AF2B4BF5
:101C00009AE72B4B98E701F019FAF3E794F8823042
:101C1000002B7FF408AF94F8843013F00F01B3D099
:101C20001A06204602D501F03BFDADE701F02CFD80
:101C3000AAE794F88230002B7FF4F5AE94F8843054
:101C400013F00F01A0D01B06204602D501F010FDB5
:101C50009AE701F001FD97E7142284F8702083F3DE
:101C600011882B462A4629462046FFF769FE85F350
:101C70001188E9E65DB1152284F8702083F311889C
:101C800000212046D4E91D23FFF75AFEFDE60B2272
:101C900084F8702083F311882B462A462946204673
:101CA000FFF760FEE3E700BFA44500089C4500087D
:101CB000A045000838B590F870300446002B3ED09F
:101CC000063BDAB20F2A34D80F2B32D8DFE803F004
:101CD0003731310822323131313131313131373719
:101CE000856FB0F886309D4214D2C3681B8AB5FB5D
:101CF000F3F203FB12556DB9302383F311882B46A1
:101D00002A462946FFF72EFE85F311880A2384F818
:101D100070300EE0142384F87030302383F3118880
:101D2000002320461A461946FFF70AFE002383F3D4
:101D3000118838BDC36F03B198470023E7E700213E
:101D4000204601F095FC0021204601F085FC6368E7
:101D50001B6813B10621204698470623D7E70000E9
:101D600010B590F870300446142B29D017D8062BE4
:101D700005D001D81BB110BD093B022BFBD80021B7
:101D8000204601F075FC0021204601F065FC6368E7
:101D90001B6813B1062120469847062319E0152B2E
:101DA000E9D10B2380F87030302383F311880023AE
:101DB0001A461946FFF7D6FD002383F31188DAE7A8
:101DC000C3689B695B68002BD5D1C36F03B198478B
:101DD000002384F87030CEE700238268037503691E
:101DE0001B6899689142FBD25A6803604260106098
:101DF0005860704700238268037503691B689968FF
:101E00009142FBD85A680360426010605860704786
:101E100008B50846302383F311880A7D0023052A7C
:101E200006D8DFE802F00B050503120E8269136085
:101E30004FF0FF338361FFF7CFFF002383F3118857
:101E400008BD8269936801339360D0E90032136062
:101E50005A60EDE7FFF7C0BF054BD96808751868F1
:101E6000026853601A600122D8600275FEF7CABA90
:101E7000402400200C4B30B5DD684B1C87B0044675
:101E80000FD02B46094A684600F06EF92046FFF74E
:101E9000E3FF009B13B1684600F070F9A86907B032
:101EA00030BDFFF7D9FFF9E740240020111E0008DC
:101EB00038B50C4D04468161EB6881689A6891429F
:101EC00003D8BDE83840FFF787BF1846FFF792FFF9
:101ED00001230146EC6020462375BDE83840FEF73B
:101EE00091BA00BF40240020044B1A68DB68906858
:101EF0009B68984294BF0020012070474024002036
:101F0000084B10B51C68D868226853601A6001221B
:101F1000DC602275FFF76EFF01462046BDE81040E9
:101F2000FEF770BA4024002038B50123084C002584
:101F30002370656001F0A8FD01F0CEFD054906485B
:101F400001F060FE0223237085F3118838BD00BFC5
:101F5000A8260020AC4500084024002000F044B929
:101F6000034A516853685B1A9842FBD8704700BF18
:101F7000001000E08B600223086108468B827047E6
:101F80008368A3F1840243F8142C026943F8442CBB
:101F9000426943F8402C094A43F8242CC268A3F153
:101FA000200043F8182C022203F80C2C002203F81E
:101FB0000B2C034A43F8102C704700BF1D04000887
:101FC0004024002008B5FFF7DBFFBDE80840FFF71D
:101FD00041BF0000024BDB6898610F20FFF73CBF58
:101FE00040240020302383F31188FFF7F3BF000063
:101FF00008B50146302383F311880820FFF73AFF24
:10200000002383F3118808BD064BDB6839B14268B1
:1020100018605A60136043600420FFF72BBF4FF035
:10202000FF307047402400200368984206D01A68A9
:102030000260506018469961FFF70CBF70470000BE
:1020400038B504460D462068844200D138BD036887
:1020500023605C608561FFF7FDFEF4E7036810B55F
:102060009C68A2420CD85C688A600B604C6021605E
:10207000596099688A1A9A604FF0FF33836010BDE7
:10208000121B1B68ECE700000A2938BF0A2170B553
:1020900004460D460A26601901F0F0FC01F0D8FC58
:1020A000041BA54203D8751C04462E46F3E70A2EEE
:1020B00004D90120BDE8704001F0E4BD70BD00000E
:1020C000F8B5144B0D460A2A4FF00A07D96103F1FF
:1020D0001001826038BF0A2241601969144601600C
:1020E00048601861A81801F0B9FC01F0B1FC431B6D
:1020F0000646A34206D37C1C28192746354601F024
:10210000BDFCF2E70A2F04D90120BDE8F84001F038
:10211000B9BDF8BD40240020F8B506460D4601F0D3
:1021200097FC0F4A134653F8107F9F4206D12A4668
:1021300001463046BDE8F840FFF7C2BFD169BB6831
:10214000441A2C1928BF2C46A34202D92946FFF76E
:102150009BFF224631460348BDE8F840FFF77EBFAB
:102160004024002050240020C0E90323002310B4A1
:102170005DF8044B4361FFF7CFBF000010B5194C69
:10218000236998420DD08168D0E9003213605A600B
:102190009A680A449A60002303604FF0FF33A361FA
:1021A00010BD0268234643F8102F536000220260DE
:1021B00022699A4203D1BDE8104001F059BC9368EE
:1021C00081680B44936001F043FC2269E1699268E5
:1021D000441AA242E4D91144BDE81040091AFFF79D
:1021E00053BF00BF402400202DE9F047DFF8BC803A
:1021F00008F110072C4ED8F8105001F029FCD8F83F
:102200001C40AA68031B9A423ED814444FF00009B0
:10221000D5E90032C8F81C4013605A60C5F8009038
:10222000D8F81030B34201D101F022FC89F31188B3
:10223000D5E9033128469847302383F311886B6929
:10224000002BD8D001F004FC6A69A0EB0409824697
:102250004A450DD2022001F015FD0022D8F81030B9
:10226000B34208D151462846BDE8F047FFF728BFE2
:10227000121A2244F2E712EB09092946384638BF00
:102280004A46FFF7EBFEB5E7D8F81030B34208D066
:102290001444C8F81C00211AA960BDE8F047FFF7F4
:1022A000F3BEBDE8F08700BF50240020402400208A
:1022B00000207047FEE70000704700004FF0FF303D
:1022C0007047000002290CD0032904D001290748D7
:1022D00018BF00207047032A05D8054800EBC2004C
:1022E0007047044870470020704700BF84460008CC
:1022F0003C2200203846000870B59AB005460846D2
:10230000144601A900F0C2F801A8FEF7C5FD431C60
:102310000022C6B25B001046C5E9003423700323D7
:10232000023404F8013C01ABD1B202348E4201D830
:102330001AB070BD13F8011B013204F8010C04F847
:10234000021CF1E708B5302383F311880348FFF737
:1023500025FA002383F3118808BD00BFB0260020B2
:1023600090F8803003F01F02012A07D190F88120F5
:102370000B2A03D10023C0E91D3315E003F06003ED
:10238000202B08D1B0F884302BB990F88120212A75
:1023900003D81F2A04D8FFF7E3B9222AEBD0FAE7C3
:1023A000034A426707228267C3670120704700BF64
:1023B0003322002007B5052917D8DFE801F01916E8
:1023C00003191920302383F31188104A0121019049
:1023D000FFF78CFA019802210D4AFFF787FA0D48A2
:1023E000FFF7A8F9002383F3118803B05DF804FB1D
:1023F000302383F311880748FFF772F9F2E730239F
:1024000083F311880348FFF789F9EBE7D845000803
:10241000FC450008B026002038B50C4D0C4C2A466F
:102420000C4904F10800FFF767FF05F1CA0204F147
:1024300010000949FFF760FF05F5CA7204F11800A2
:102440000649BDE83840FFF757BF00BF883F00206E
:102450003C220020B8450008C2450008CD450008D0
:1024600070B5044608460D46FEF716FDC6B2204676
:10247000013403780BB9184670BD32462946FEF781
:10248000F7FC0028F3D10120F6E700002DE9F84F12
:1024900005460C46FEF700FD2C49C6B22846FFF75C
:1024A000DFFF08B10236F6B229492846FFF7D8FF08
:1024B00008B11036F6B2632E0DD8DFF89080DFF841
:1024C0009090244FDFF894A0DFF894B02E7846B9AE
:1024D0002670BDE8F88F29462046BDE8F84F01F088
:1024E000A3BF252E2ED1072241462846FEF7C0FC69
:1024F00070B9DBF800300735093444F8093CDBF8E3
:10250000043044F8053C9BF8083004F8013CDDE752
:10251000082249462846FEF7ABFC98B9A21C0E4B90
:10252000197802320909C95D02F8041C13F8011B6D
:1025300001F00F015345C95D02F8031CF0D11834B6
:102540000835C3E7013504F8016BBFE7A44600086E
:10255000CD450008B646000800E8F11F0CE8F11F61
:10256000AC460008BFF34F8F044B1A695107FCD1EA
:10257000D3F810215207F8D1704700BF0020005255
:1025800008B50D4B1B78ABB9FFF7ECFF0B4BDA68C6
:10259000D10704D50A4A5A6002F188325A60D3F84A
:1025A0000C21D20706D5064AC3F8042102F188326D
:1025B000C3F8042108BD00BFE641002000200052FE
:1025C0002301674508B5114B1B78F3B9104B1A6905
:1025D000510703D5DA6842F04002DA60D3F81021DF
:1025E000520705D5D3F80C2142F04002C3F80C2164
:1025F000FFF7B8FF064BDA6842F00102DA60D3F861
:102600000C2142F00102C3F80C2108BDE641002074
:10261000002000520F289ABF00F58060400400207F
:10262000704700004FF400307047000010207047E2
:102630000F2808B50BD8FFF7EDFF00F5003302684F
:10264000013204D104308342F9D1012008BD0020B9
:10265000FCE700000F2838B505463FD8FFF782FF9A
:102660001F4CFFF78DFF4FF0FF3307286361C4F85D
:1026700014311DD82361FFF775FF030243F02403D3
:10268000E360E36843F08003E36023695A07FCD406
:102690002846FFF767FFFFF7BDFF4FF4003100F05A
:1026A000B3F92846FFF78EFFBDE83840FFF7C0BFFB
:1026B000C4F81031FFF756FFA0F108031B0243F0E6
:1026C0002403C4F80C31D4F80C3143F08003C4F86F
:1026D0000C31D4F810315B07FBD4D9E7002038BDAA
:1026E000002000522DE9F84F05460C46104645EAF9
:1026F0000203DE0602D00020BDE8F88F20F01F00A4
:10270000DFF8BCB0DFF8BCA0FFF73AFF04EB00082D
:10271000444503D10120FFF755FFEDE7202229466C
:10272000204601F071FE10B920352034F0E72B4629
:1027300005F120021F68791CDDD104339A42F9D1DA
:1027400005F178431B481C4EB3F5801F1B4B38BF67
:10275000184603F1F80332BFD946D1461E46FFF7AB
:1027600001FF0760A5EB040C336804F11C0143F082
:1027700002033360231FD9F8007017F00507FAD160
:1027800053F8042F8B424CF80320F4D1BFF34F8F42
:10279000FFF7E8FE4FF0FF33202221460360284672
:1027A000336823F00203336001F02EFE0028BBD013
:1027B0003846B0E7142100520C2000521420005279
:1027C000102000521021005210B5084C237828B177
:1027D0001BB9FFF7D5FE0123237010BD002BFCD0E1
:1027E0002070BDE81040FFF7EDBE00BFE6410020BD
:1027F0002DE9F04F0D4685B0814658B111F00D0618
:1028000014BF2022082211F00803019304D0431EB4
:1028100003426AD0002435E0002E37D009F11F01B1
:1028200021F01F094FF00108324F05F00403DFF8D3
:10283000D0A005EA080BBBF1000F32D07869C007C1
:102840002FD408F101080C37B8F1060FF3D19EB967
:10285000294D4946A819019201F060F90446002863
:102860003AD11836019A782EF3D1494601F056F93B
:102870000446002830D1019A4946204801F04EF91B
:10288000044668BB204605B0BDE8F08F0029C9D1D9
:1028900001462846029201F041F90446E0B9029A45
:1028A000C0E713B178694107CBD5AC0702D5786989
:1028B0008007C6D5019911B178690107C1D51820E3
:1028C000494600FB08A0CDE9022301F027F90446A0
:1028D000DDE902230028B4D04A460021204601E069
:1028E0004A460021FEF7E0FACCE70246002E95D1D9
:1028F00098E700BFC846000818420020E8410020C1
:10290000004200200121FFF773BF0000F8B5144D0D
:1029100001241827134E40F2FF3200210120FEF758
:10292000C3FA07FB046001342A6955F80C1F01F053
:10293000E1F8062CF5D137254FF4C0542046FFF7B7
:10294000E1FF014628B122460748BDE8F84001F002
:10295000D1B8C4EBC404013D4FEAD404EED1F8BDB4
:10296000C846000800420020E84100200244074B0E
:10297000D2B210B5904200D110BD441C00B253F841
:10298000200041F8040BE0B2F4E700BF50400058CB
:102990000E4B30B51C6F240405D41C6F1C671C6FD4
:1029A00044F400441C670A4C02442368D2B243F446
:1029B00080732360074B904200D130BD441C51F816
:1029C000045B00B243F82050E0B2F4E70044025840
:1029D000004802585040005807B5012201A90020C4
:1029E000FFF7C4FF019803B05DF804FB13B504467C
:1029F000FFF7F2FFA04205D0012201A900200194B7
:102A0000FFF7C6FF02B010BD0144BFF34F8F064B66
:102A1000884204D3BFF34F8FBFF36F8F7047C3F863
:102A20005C022030F4E700BF00ED00E0034B1A68C1
:102A30001AB9034AD2F8D0241A6070479042002095
:102A40000040025808B5FFF7F1FF024B1868C0F3C9
:102A5000806008BD90420020EFF309830549683388
:102A60004A6B22F001024A6383F30988002383F34F
:102A70001188704700EF00E0302080F3118862B6C3
:102A80000D4B0E4AD96821F4E0610904090C0A4390
:102A90000B49DA60D3F8FC2042F08072C3F8FC20C6
:102AA000084AC2F8B01F116841F0010111602022EC
:102AB000DA7783F82200704700ED00E00003FA05A2
:102AC00055CEACC5001000E0302310B583F311885B
:102AD0000E4B5B6813F4006314D0F1EE103AEFF381
:102AE00009844FF08073683CE361094BDB6B23661C
:102AF00084F30988FFF7F8F910B1064BA36110BD04
:102B0000054BFBE783F31188F9E700BF00ED00E018
:102B100000EF00E02F0400083204000870B5BFF396
:102B20004F8FBFF36F8F1A4A0021C2F85012BFF3C4
:102B30004F8FBFF36F8F536943F400335361BFF37B
:102B40004F8FBFF36F8FC2F88410BFF34F8FD2F84F
:102B5000803043F6E074C3F3C900C3F34E335B0126
:102B600003EA0406014646EA81750139C2F860525B
:102B7000F9D2203B13F1200FF2D1BFF34F8F5369ED
:102B800043F480335361BFF34F8FBFF36F8F70BD3A
:102B900000ED00E0FEE70000214B2248224A70B51C
:102BA000904237D3214BC11EDA1C121A22F00302C5
:102BB0008B4238BF00220021FEF776F91C4A002321
:102BC000C2F88430BFF34F8FD2F8803043F6E07400
:102BD000C3F3C900C3F34E335B0103EA04060146A5
:102BE00046EA81750139C2F86C52F9D2203B13F1E3
:102BF000200FF2D1BFF34F8FBFF36F8FBFF34F8F13
:102C0000BFF36F8F0023C2F85032BFF34F8FBFF373
:102C10006F8F70BD53F8041B40F8041BC0E700BF62
:102C2000EC480008844400208444002084440020B0
:102C300000ED00E0074BD3F8D81021EA0001C3F8FB
:102C4000D810D3F8002122EA0002C3F80021D3F8FB
:102C5000003170470044025870B5D0E92443002287
:102C60004FF0FF359E6804EB42135101D3F8000981
:102C7000002805DAD3F8000940F08040C3F80009C5
:102C8000D3F8000B002805DAD3F8000B40F08040A1
:102C9000C3F8000B013263189642C3F80859C3F811
:102CA000085BE0D24FF00113C4F81C3870BD00007F
:102CB000890141F02001016103699B06FCD41220C7
:102CC000FFF74EB910B50A4C2046FEF7EDFD094B53
:102CD000C4F89030084BC4F89430084C2046FEF7F6
:102CE000E3FD074BC4F89030064BC4F8943010BD98
:102CF0009442002000000840344700083043002080
:102D0000000004404047000870B503780546012BD9
:102D10005CD1434BD0F89040984258D1414B0E21A2
:102D20006520D3F8D82042F00062C3F8D820D3F849
:102D3000002142F00062C3F80021D3F80021D3F84B
:102D4000802042F00062C3F88020D3F8802022F077
:102D50000062C3F88020D3F88030FEF7D1FB324BFD
:102D6000E360324BC4F800380023D5F89060C4F813
:102D7000003EC02323604FF40413A3633369002B88
:102D8000FCDA01230C203361FFF7EAF83369DB0733
:102D9000FCD41220FFF7E4F83369002BFCDA00269C
:102DA0002846A660FFF758FF6B68C4F81068DB6818
:102DB000C4F81468C4F81C6883BB1D4BA3614FF0B2
:102DC000FF336361A36843F00103A36070BD194B37
:102DD0009842C9D1134B4FF08060D3F8D82042F00D
:102DE0000072C3F8D820D3F8002142F00072C3F873
:102DF0000021D3F80021D3F8802042F00072C3F8FC
:102E00008020D3F8802022F00072C3F88020D3F80D
:102E10008030FFF70FFF0E214D209EE7064BCDE7D8
:102E20009442002000440258401400400300200255
:102E3000003C30C030430020083C30C0F8B5D0F82A
:102E40009040054600214FF000662046FFF730FF16
:102E5000D5F8941000234FF001128F684FF0FF3027
:102E6000C4F83438C4F81C2804EB431201339F42E1
:102E7000C2F80069C2F8006BC2F80809C2F8080B72
:102E8000F2D20B68D5F89020C5F898306362102311
:102E90001361166916F01006FBD11220FFF760F8D7
:102EA000D4F8003823F4FE63C4F80038A36943F46F
:102EB000402343F01003A3610923C4F81038C4F879
:102EC00014380B4BEB604FF0C043C4F8103B094B78
:102ED000C4F8003BC4F81069C4F80039D5F898303C
:102EE00003F1100243F48013C5F89820A362F8BDE3
:102EF0001047000840800010D0F8902090F88A1009
:102F0000D2F8003823F4FE6343EA0113C2F8003814
:102F1000704700002DE9F84300EB8103D0F8905092
:102F20000C468046DA680FFA81F94801166806F007
:102F30000306731E022B05EB41134FF0000194BFF3
:102F4000B604384EC3F8101B4FF0010104F1100312
:102F500098BF06F1805601FA03F3916998BF06F510
:102F6000004600293AD0578A04F1580137434901F5
:102F70006F50D5F81C180B430021C5F81C382B18CE
:102F80000127C3F81019A7405369611E9BB3138A28
:102F9000928B9B08012A88BF5343D8F89820981831
:102FA00042EA034301F140022146C8F8980028464E
:102FB00005EB82025360FFF77BFE08EB8900C368D4
:102FC0001B8A43EA845348341E4364012E51D5F8CA
:102FD0001C381F43C5F81C78BDE8F88305EB49177A
:102FE000D7F8001B21F40041C7F8001BD5F81C18C6
:102FF00021EA0303C0E704F13F030B4A28462146B8
:1030000005EB83035A60FFF753FE05EB4910D0F838
:10301000003923F40043C0F80039D5F81C3823EAFE
:103020000707D7E70080001000040002D0F89420C2
:103030001268C0F89820FFF70FBE00005831D0F892
:10304000903049015B5813F4004004D013F4001F82
:103050000CBF0220012070474831D0F89030490160
:103060005B5813F4004004D013F4001F0CBF02207F
:103070000120704700EB8101CB68196A0B6813606F
:103080004B6853607047000000EB810330B5DD688A
:10309000AA691368D36019B9402B84BF4023136019
:1030A0006B8A1468D0F890201C4402EB4110013C5C
:1030B00009B2B4FBF3F46343033323F0030343EA9D
:1030C000C44343F0C043C0F8103B2B6803F0030334
:1030D000012B0ED1D2F8083802EB411013F4807F97
:1030E000D0F8003B14BF43F0805343F00053C0F8C6
:1030F000003B02EB4112D2F8003B43F00443C2F81C
:10310000003B30BD2DE9F041D0F8906005460C46FB
:1031100006EB4113D3F8087B3A07C3F8087B08D5C0
:10312000D6F814381B0704D500EB8103DB685B6815
:103130009847FA071FD5D6F81438DB071BD505EBDF
:103140008403D968CCB98B69488A5A68B2FBF0F617
:1031500000FB16228AB91868DA6890420DD2121A5A
:10316000C3E90024302383F3118821462846FFF762
:103170008BFF84F31188BDE8F081012303FA04F288
:103180006B8923EA02036B81CB68002BF3D02146C5
:103190002846BDE8F041184700EB81034A0170B5AD
:1031A000DD68D0F890306C692668E66056BB1A443A
:1031B0004FF40020C2F810092A6802F00302012A25
:1031C0000AB20ED1D3F8080803EB421410F4807F42
:1031D000D4F8000914BF40F0805040F00050C4F80B
:1031E000000903EB4212D2F8000940F00440C2F893
:1031F00000090122D3F8340802FA01F10143C3F8AF
:10320000341870BD19B9402E84BF4020206020685A
:103210001A442E8A8419013CB4FBF6F440EAC440F7
:1032200040F00050C6E700002DE9F843D0F8906068
:1032300005460C464F0106EB4113D3F8088918F0F8
:10324000010FC3F808891CD0D6F81038DB0718D551
:1032500000EB8103D3F80CC0DCF81430D3F800E0A5
:10326000DA68964530D2A2EB0E024FF000091A60E0
:10327000C3F80490302383F31188FFF78DFF89F39F
:10328000118818F0800F1DD0D6F834380126A640DA
:10329000334217D005EB84030134D5F89050D3F8AE
:1032A0000CC0E4B22F44DCF8142005EB0434D2F84F
:1032B00000E05168714514D3D5F8343823EA060686
:1032C000C5F83468BDE8F883012303FA01F20389E5
:1032D00023EA02030381DCF80830002BD1D09847A1
:1032E000CFE7AEEB0103BCF81000834228BF0346D2
:1032F000D7F8180980B2B3EB800FE3D89068A0F13B
:10330000040959F8048FC4F80080A0EB0908984418
:10331000B8F1040FF5D818440B4490605360C8E727
:103320002DE9F84FD0F8905004466E69AB691E4005
:1033300016F480586E6103D0BDE8F84FFEF724BB49
:10334000002E12DAD5F8003E9B0705D0D5F8003ED6
:1033500023F00303C5F8003ED5F80438204623F0D7
:103360000103C5F80438FEF73DFB370505D52046B7
:10337000FFF772FC2046FEF723FBB0040CD5D5F80E
:10338000083813F0060FEB6823F470530CBF43F4B6
:10339000105343F4A053EB6031071BD56368DB681F
:1033A0001BB9AB6923F00803AB612378052B0CD163
:1033B000D5F8003E9A0705D0D5F8003E23F0030368
:1033C000C5F8003E2046FEF70DFB6368DB680BB1D5
:1033D00020469847F30200F1BA80B70226D5D4F808
:1033E000909000274FF0010A09EB4712D2F8003BFA
:1033F00003F44023B3F5802F11D1D2F8003B002B0A
:103400000DDA62890AFA07F322EA0303638104EB07
:103410008703DB68DB6813B13946204698470137DC
:10342000D4F89430FFB29B689F42DDD9F00619D5DD
:10343000D4F89000026AC2F30A1702F00F0302F4F4
:10344000F012B2F5802F00F0CA80B2F5402F09D1FA
:1034500004EB8303002200F58050DB681B6A97426F
:1034600040F0B0803003D5F8185835D5E90303D5BE
:1034700000212046FFF746FEAA0303D5012120467E
:10348000FFF740FE6B0303D502212046FFF73AFE0B
:103490002F0303D503212046FFF734FEE80203D5AE
:1034A00004212046FFF72EFEA90203D50521204660
:1034B000FFF728FE6A0203D506212046FFF722FE09
:1034C0002B0203D507212046FFF71CFEEF0103D591
:1034D00008212046FFF716FE700340F1A780E90798
:1034E00003D500212046FFF79FFEAA0703D501213F
:1034F0002046FFF799FE6B0703D502212046FFF710
:1035000093FE2F0703D503212046FFF78DFEEE061D
:1035100003D504212046FFF787FEA80603D5052121
:103520002046FFF781FE690603D506212046FFF7F6
:103530007BFE2A0603D507212046FFF775FEEB0523
:1035400074D520460821BDE8F84FFFF76DBED4F8CA
:1035500090904FF0000B4FF0010AD4F894305FFACE
:103560008BF79B689F423FF638AF09EB4713D3F8C0
:10357000002902F44022B2F5802F20D1D3F800298F
:10358000002A1CDAD3F8002942F09042C3F800293F
:10359000D3F80029002AFBDB3946D4F89000FFF766
:1035A00087FB22890AFA07F322EA0303238104EB4B
:1035B0008703DB689B6813B13946204698470BF1B7
:1035C000010BCAE7910701D1D0F80080072A02F168
:1035D00001029CBF03F8018B4FEA18283FE704EB78
:1035E000830300F58050DA68D2F818C0DCF80820B0
:1035F000DCE9001CA1EB0C0C00218F4208D1DB6838
:103600009B699A683A449A605A683A445A6029E732
:1036100011F0030F01D1D0F800808C4501F10101B8
:1036200084BF02F8018B4FEA1828E6E7BDE8F88F5F
:1036300008B50348FFF774FEBDE80840FFF744BA39
:103640009442002008B50348FFF76AFEBDE8084031
:10365000FFF73ABA30430020D0F8903003EB411125
:10366000D1F8003B43F40013C1F8003B7047000061
:10367000D0F8903003EB4111D1F8003943F4001336
:10368000C1F8003970470000D0F8903003EB4111C9
:10369000D1F8003B23F40013C1F8003B7047000051
:1036A000D0F8903003EB4111D1F8003923F4001326
:1036B000C1F800397047000030B50433039C017233
:1036C000002104FB0325C160C0E90653049B03638A
:1036D000059BC0E90000C0E90422C0E90842C0E936
:1036E0000A11436330BD00000022416AC260C0E994
:1036F0000411C0E90A226FF00101FEF7A1BC00002D
:10370000D0E90432934201D1C2680AB9181D70474A
:1037100000207047036919600021C2680132C2604D
:10372000C269134482699342036124BF436A0361FF
:10373000FEF77ABC38B504460D46E3683BB16269D2
:103740000020131D1268A3621344E36207E0237A8A
:1037500033B929462046FEF757FC0028EDDA38BD7C
:103760006FF00100FBE70000C368C269013BC36062
:103770004369134482699342436124BF436A4361AE
:1037800000238362036B03B11847704770B5302381
:10379000044683F31188866A3EB9FFF7CBFF0546DE
:1037A00018B186F31188284670BDA36AE26A13F83F
:1037B000015B9342A36202D32046FFF7D5FF0023AB
:1037C00083F31188EFE700002DE9F84F04460E4619
:1037D000174698464FF0300989F311880025AA460C
:1037E000D4F828B0BBF1000F09D141462046FFF7BD
:1037F000A1FF20B18BF311882846BDE8F88FD4E9EA
:103800000A12A7EB050B521A934528BF9346BBF14A
:10381000400F1BD9334601F1400251F8040B91428D
:1038200043F8040BF9D1A36A403640354033A36214
:10383000D4E90A239A4202D32046FFF795FF8AF380
:103840001188BD42D8D289F31188C9E730465A465B
:10385000FDF704FBA36A5E445D445B44A362E7E7B3
:1038600010B5029C0433017203FB0421C460C0E95B
:1038700006130023C0E90A33039B0363049BC0E9DA
:103880000000C0E90422C0E90842436310BD000003
:10389000026A6FF00101C260426AC0E9042200229C
:1038A000C0E90A22FEF7CCBBD0E904239A4201D139
:1038B000C26822B9184650F8043B0B6070470023D9
:1038C0001846FAE7C3680021C2690133C36043693F
:1038D000134482699342436124BF436A4361FEF704
:1038E000A3BB000038B504460D46E3683BB123692D
:1038F00000201A1DA262E2691344E36207E0237A02
:1039000033B929462046FEF77FFB0028EDDA38BDA3
:103910006FF00100FBE7000003691960C268013A1B
:10392000C260C269134482699342036124BF436A3F
:10393000036100238362036B03B1184770470000E3
:1039400070B530230D460446114683F31188866A0C
:103950002EB9FFF7C7FF10B186F3118870BDA36AB7
:103960001D70A36AE26A01339342A36204D3E16942
:1039700020460439FFF7D0FF002080F31188EDE7DF
:103980002DE9F84F04460D46904699464FF0300A0F
:103990008AF311880026B346A76A4FB949462046E4
:1039A000FFF7A0FF20B187F311883046BDE8F88FFC
:1039B000D4E90A073A1AA8EB0607974228BF174628
:1039C000402F1BD905F1400355F8042B9D4240F8C8
:1039D000042BF9D1A36A40364033A362D4E90A2309
:1039E0009A4204D3E16920460439FFF795FF8BF32F
:1039F00011884645D9D28AF31188CDE729463A463F
:103A0000FDF72CFAA36A3D443E443B44A362E5E73C
:103A1000D0E904239A4217D1C3689BB1836A8BB162
:103A2000043B9B1A0ED01360C368013BC360C3699B
:103A30001A4483699A42026124BF436A03610023E6
:103A400083620123184670470023FBE700F01EBA8B
:103A5000014B586A704700BF000C0040034B002226
:103A600058631A610222DA60704700BF000C004000
:103A7000014B0022DA607047000C0040014B586394
:103A8000704700BF000C0040024B034A1A60034A13
:103A90005A607047E4430020884400200000022060
:103AA000074B494210B55C68201A08401968821A11
:103AB0008A4203D3A24201D85A6010BD0020FCE71D
:103AC000E443002008B5302383F31188FFF7E8FFB3
:103AD000002383F3118808BD04480121044B0360CF
:103AE0000023C0E901330C3000F0D4B8EC430020CF
:103AF000C53A0008CB1D083A23F00703591A521A99
:103B0000012110B4D2080024C0E9004384600C30C5
:103B10001C605A605DF8044B00F0BCB82DE9F84F0A
:103B2000364ECD1D0F46002818BF0646082A4FEA1C
:103B3000D50538BF082206F10C08341D91464046D1
:103B400000F0C4F809F10701C9F1000E224624680B
:103B50006CB9404600F0C4F83368CBB3082249463C
:103B6000E8009847044698B340E9026730E004EB68
:103B7000010CD4F804A00CEA0E0C0AF10100ACF11F
:103B8000080304EBC0009842E0D9A0EB0C0CB5EBA5
:103B9000EC0F4FEAEC0BD9D89C421CD204F108027E
:103BA000AB45A3EB02024FEAE202626009D9691C4D
:103BB000ED43206803EBC1025D44556043F83100DA
:103BC00022601C465F60404644F8086B00F088F8AD
:103BD0002046BDE8F88FAA45216802D1116023462E
:103BE000EFE7013504EBC50344F8351003F1080194
:103BF000401AC01058601360F1E700BFEC4300208A
:103C0000FEE7000070B51B4B0025044686B05860E7
:103C10000E4685620163FEF72FFF04F11003A560D5
:103C2000E562C4E904334FF0FF33C4E90044C4E95A
:103C30000635FFF70DFF2B46024604F134012046FE
:103C4000C4E9082380230C4A2565FEF793F9012374
:103C50000A4AE06000920375684672680192B26891
:103C6000CDE90223064BCDE90435FEF7ABF906B0EA
:103C700070BD00BFA82600204C470008514700082F
:103C8000013C0008024AD36A1843D062704700BF63
:103C900040240020C0E90000816070478368013B38
:103CA000002B10B583600CDA074BDC684368A06119
:103CB000206063601C6044600520FEF7CDF8A069B9
:103CC00010BD0020FCE700BF4024002008B53023D1
:103CD00083F31188FFF7E2FF002383F3118808BD07
:103CE00008B5302383F3118883680133002B836088
:103CF00007DC036800211A68026050601846FEF76E
:103D0000D7F8002383F3118808BD00004B68436097
:103D10008B688360CB68C3600B6943614B69036246
:103D20008B6943620B6803607047000008B53C4B29
:103D300040F2FF713B48D3F888200A43C3F888203B
:103D4000D3F8882022F4FF6222F00702C3F888200B
:103D5000D3F88820D3F8E0200A43C3F8E020D3F852
:103D600008210A43C3F808212F4AD3F80831114625
:103D7000FFF7CCFF00F5806002F11C01FFF7C6FFE2
:103D800000F5806002F13801FFF7C0FF00F58060A8
:103D900002F15401FFF7BAFF00F5806002F17001F3
:103DA000FFF7B4FF00F5806002F18C01FFF7AEFF72
:103DB00000F5806002F1A801FFF7A8FF00F5806020
:103DC00002F1C401FFF7A2FF00F5806002F1E001FB
:103DD000FFF79CFF00F5806002F1FC01FFF796FF02
:103DE00002F58C7100F58060FFF790FF00F01AF982
:103DF0000E4BD3F8902242F00102C3F89022D3F880
:103E0000942242F00102C3F894220522C3F89820BC
:103E10004FF06052C3F89C20054AC3F8A02008BDAB
:103E200000440258000002585847000800ED00E026
:103E30001F00080308B500F0C9FAFEF775F8104B2B
:103E4000D3F8DC2042F04002C3F8DC20D3F8042190
:103E500022F04002C3F80421D3F80431094B1A6858
:103E600042F008021A601A6842F004021A60FEF773
:103E7000DDFDFEF74BFDBDE80840FEF7CDBA00BF03
:103E8000004402580018024870470000114BD3F854
:103E9000E82042F00802C3F8E820D3F8102142F0ED
:103EA0000802C3F810210C4AD3F81031D36B43F049
:103EB0000803D363C722094B9A624FF0FF32DA62DC
:103EC00000229A615A63DA605A6001225A611A60CC
:103ED000704700BF004402580010005C000C004016
:103EE000094A08B51169D3680B40D9B29B076FEA3C
:103EF0000101116107D5302383F31188FEF72EF8F5
:103F0000002383F3118808BD000C0040064BD3F852
:103F1000DC200243C3F8DC20D3F804211043C3F8AB
:103F20000401D3F8043170470044025808B53C4BF3
:103F30004FF0FF31D3F8802062F00042C3F88020B8
:103F4000D3F8802002F00042C3F88020D3F880200C
:103F5000D3F88420C3F88410D3F884200022C3F857
:103F60008420D3F88400D86F40F0FF4040F4FF0075
:103F700040F4DF4040F07F00D867D86F20F0FF406A
:103F800020F4FF0020F4DF4020F07F00D867D86FD6
:103F9000D3F888006FEA40506FEA5050C3F88800A9
:103FA000D3F88800C0F30A00C3F88800D3F888006B
:103FB000D3F89000C3F89010D3F89000C3F8902085
:103FC000D3F89000D3F89400C3F89410D3F8940079
:103FD000C3F89420D3F89400D3F89800C3F898104D
:103FE000D3F89800C3F89820D3F89800D3F88C0041
:103FF000C3F88C10D3F88C00C3F88C20D3F88C0055
:10400000D3F89C00C3F89C10D3F89C10C3F89C20F4
:10401000D3F89C30FDF798F9BDE8084000F0AEB940
:104020000044025808B50122534BC3F80821534BF2
:10403000D3F8F42042F00202C3F8F420D3F81C2194
:1040400042F00202C3F81C210222D3F81C314C4B6F
:10405000DA605A689104FCD54A4A1A6001229A60D3
:10406000494ADA6000221A614FF440429A61444B97
:104070009A699204FCD51A6842F480721A603F4B28
:104080001A6F12F4407F04D04FF480321A67002276
:104090001A671A6842F001021A60384B1A68500712
:1040A000FCD500221A611A6912F03802FBD10121F5
:1040B00019604FF0804159605A67344ADA62344AD5
:1040C0001A611A6842F480321A602C4B1A68910304
:1040D000FCD51A6842F480521A601A689204FCD522
:1040E0002C4A2D499A6200225A63196301F57C011A
:1040F000DA6301F2E71199635A64284A1A64284A7C
:10410000DA621A6842F0A8521A601C4B1A6802F070
:104110002852B2F1285FF9D148229A614FF488629F
:10412000DA6140221A621F4ADA641F4A1A651F4A7E
:104130005A651F4A9A6532231E4A1360136803F0BA
:104140000F03022BFAD10D4A136943F003031361E5
:10415000136903F03803182BFAD14FF00050FFF722
:10416000D5FE4FF08040FFF7D1FE4FF00040BDE894
:104170000840FFF7CBBE00BF00800051004402584A
:104180000048025800C000F0020000010000FF01DA
:10419000008890081210200063020901470E0508EC
:1041A000DD0BBF0120000020000001100910E0001D
:1041B00000010110002000524FF0B04208B5D2F8C3
:1041C000883003F00103C2F8883023B1044A136831
:1041D0000BB150689847BDE80840FEF775BC00BFBA
:1041E000044400204FF0B04208B5D2F8883003F004
:1041F0000203C2F8883023B1044A93680BB1D06837
:104200009847BDE80840FEF75FBC00BF04440020AB
:104210004FF0B04208B5D2F8883003F00403C2F87A
:10422000883023B1044A13690BB150699847BDE83F
:104230000840FEF749BC00BF044400204FF0B042E4
:1042400008B5D2F8883003F00803C2F8883023B1EB
:10425000044A93690BB1D0699847BDE80840FEF75E
:1042600033BC00BF044400204FF0B04208B5D2F880
:10427000883003F01003C2F8883023B1044A136A6F
:104280000BB1506A9847BDE80840FEF71DBC00BF5F
:10429000044400204FF0B04310B5D3F8884004F434
:1042A0007872C3F88820A30604D5124A936A0BB12A
:1042B000D06A9847600604D50E4A136B0BB1506B59
:1042C0009847210604D50B4A936B0BB1D06B9847E6
:1042D000E20504D5074A136C0BB1506C9847A3054F
:1042E00004D5044A936C0BB1D06C9847BDE81040DC
:1042F000FEF7EABB044400204FF0B04310B5D3F8FA
:10430000884004F47C42C3F88820620504D5164A2C
:10431000136D0BB1506D9847230504D5124A936D68
:104320000BB1D06D9847E00404D50F4A136E0BB162
:10433000506E9847A10404D50B4A936E0BB1D06E12
:104340009847620404D5084A136F0BB1506F984721
:10435000230404D5044A936F0BB1D06F9847BDE88E
:104360001040FEF7B1BB00BF0444002008B5FFF7C2
:10437000B7FDBDE80840FEF7A7BB0000062108B561
:104380000846FDF7BDF806210720FDF7B9F806211C
:104390000820FDF7B5F806210920FDF7B1F8062140
:1043A0000A20FDF7ADF806211720FDF7A9F8062130
:1043B0002820FDF7A5F809217A20FDF7A1F80721AB
:1043C0003220BDE80840FDF79BB8000008B5FFF7B4
:1043D000ADFD00F00BF8FDF765FAFDF737F9FFF7D3
:1043E00053FDBDE80840FFF731BB00000023054A3C
:1043F00019460133102BC2E9001102F10802F8D16D
:10440000704700BF0444002010B5013902449042B7
:1044100001D1002005E0037811F8014FA34201D03B
:10442000181B10BD0130F2E7034611F8012B03F809
:10443000012B002AF9D1704753544D333248373F8E
:104440003F3F0053544D3332483733782F3732785B
:104450000053544D3332483734332F3735332F37E9
:104460003530000001105A00031059000120580097
:1044700003205600100002400800024000080240DD
:1044800000000B002800024008000240040802401F
:1044900006010C00400002400800024008080240EB
:1044A00010020D0058000240080002400C080240B3
:1044B00016030E00700002400C000240100802407B
:1044C00000040F00880002400C0002401408024063
:1044D00006051000A00002400C000240180802402F
:1044E00010061100B80002400C0002401C080240F7
:1044F00016072F0010040240080402402008024062
:104500000008380028040240080402402408024041
:10451000060939004004024008040240280802400D
:10452000100A3A0058040240080402402C080240D5
:10453000160B3B00700402400C040240300802409D
:10454000000C3C00880402400C0402403408024085
:10455000060D4400A00402400C040240380802404A
:10456000100E4500B80402400C0402403C08024012
:10457000160F460000000000C9150008B515000818
:10458000F1150008DD150008E9150008D51500082B
:10459000C1150008AD150008FD1500080000000059
:1045A000010000000000000063300000A845000882
:1045B00098240020A82600204172647550696C6F11
:1045C000740025424F415244252D424C002553454D
:1045D0005249414C2500000002000000000000008C
:1045E000E91700085918000840004000583F002013
:1045F000683F0020020000000000000003000000EF
:1046000000000000A11800080000000010000000D9
:10461000783F0020000000000100000000000000C2
:104620009442002001010200B5230008C5220008C1
:1046300061230008452300084300000040460008AD
:1046400009024300020100C0320904000001020215
:1046500001000524001001052401000104240202C8
:104660000524060001070582030800FF0904010074
:10467000020A000000070501024000000705810250
:1046800040000000120000008C46000812011001DA
:10469000020000400912415700020102030100001C
:1046A0000403090425424F41524425004F52424918
:1046B00054483734330030313233343536373839B3
:1046C0004142434445460000000000200000020033
:1046D000020000000000003000000400080000009C
:1046E0000000002400000800040000000004000096
:1046F00000FC000002000000000004300080000008
:104700000800000000000038000001000100000067
:1047100000000000FD190008B51C0008611D00081C
:1047200040004000CC430020CC43002001000000AA
:10473000DC43002080000000400100000800000071
:104740000001000000100000080000006D61696EAB
:104750000069646C650000000000802A0000000011
:10476000AAAAAAAA00000024FFFF0000000000007F
:1047700000A00A000000000000000000AAAAAAAAE7
:1047800000000000FFFF000000000000000000002B
:104790000000000000000000AAAAAAAA0000000071
:1047A000FFFF0000000000000000000040000000CB
:1047B00000000000AAAAAAAA40000000FFFF000013
:1047C0000000000000000000401044000000000055
:1047D000AAAAAAAA00104400F7FF000000000000E7
:1047E000000000000000000000000000AAAAAAAA21
:1047F00000000000FFFF00000000000000000000BB
:104800000000000000000000AAAAAAAA0000000000
:10481000FFFF00000000000000000000000000009A
:1048200000000000AAAAAAAA00000000FFFF0000E2
:104830000000000000000000000000000000000078
:10484000AAAAAAAA00000000FFFF000000000000C2
:10485000000000000000000000000000AAAAAAAAB0
:1048600000000000FFFF000000000000000000004A
:104870000000000000000000AAAAAAAA0000000090
:10488000FFFF00000000000000000000000000002A
:10489000A60400000000000000001A000000000054
:1048A000FF000000000000003844000883040000FE
:1048B00043440008500400005144000800960000E2
:1048C000000008009600000000080000040000003E
:1048D000A0460008000000000000000000000000EA
:0C48E000000000000000000000000000CC
:00000001FF
